{
    "contractName": "SimpleVoting",
    "abi": [
        {
            "inputs": [
                {
                    "internalType": "string[]",
                    "name": "_options",
                    "type": "string[]"
                }
            ],
            "stateMutability": "nonpayable",
            "type": "constructor"
        },
        {
            "inputs": [
                {
                    "internalType": "uint256",
                    "name": "",
                    "type": "uint256"
                }
            ],
            "name": "options",
            "outputs": [
                {
                    "internalType": "string",
                    "name": "",
                    "type": "string"
                }
            ],
            "stateMutability": "view",
            "type": "function"
        },
        {
            "inputs": [
                {
                    "internalType": "string",
                    "name": "option",
                    "type": "string"
                }
            ],
            "name": "totalVotesFor",
            "outputs": [
                {
                    "internalType": "uint256",
                    "name": "",
                    "type": "uint256"
                }
            ],
            "stateMutability": "view",
            "type": "function"
        },
        {
            "inputs": [
                {
                    "internalType": "string",
                    "name": "option",
                    "type": "string"
                }
            ],
            "name": "vote",
            "outputs": [],
            "stateMutability": "nonpayable",
            "type": "function"
        }
    ],
    "bytecode": "608060405234801561000f575f80fd5b5060405161069138038061069183398101604081905261002e91610149565b8051610040905f906020840190610047565b50506103af565b828054828255905f5260205f2090810192821561008b579160200282015b8281111561008b578251829061007b90826102f0565b5091602001919060010190610065565b5061009792915061009b565b5090565b80821115610097575f6100ae82826100b7565b5060010161009b565b5080546100c39061026c565b5f825580601f106100d2575050565b601f0160209004905f5260205f20908101906100ee91906100f1565b50565b5b80821115610097575f81556001016100f2565b634e487b7160e01b5f52604160045260245ffd5b604051601f8201601f191681016001600160401b038111828210171561014157610141610105565b604052919050565b5f602080838503121561015a575f80fd5b82516001600160401b0380821115610170575f80fd5b8185019150601f86601f840112610185575f80fd5b82518281111561019757610197610105565b8060051b6101a6868201610119565b918252848101860191868101908a8411156101bf575f80fd5b87870192505b8383101561025e578251868111156101db575f80fd5b8701603f81018c136101eb575f80fd5b88810151878111156101ff576101ff610105565b610210818801601f19168b01610119565b81815260408e81848601011115610225575f80fd5b5f5b83811015610242578481018201518382018e01528c01610227565b50505f9181018b019190915283525091870191908701906101c5565b9a9950505050505050505050565b600181811c9082168061028057607f821691505b60208210810361029e57634e487b7160e01b5f52602260045260245ffd5b50919050565b601f8211156102eb57805f5260205f20601f840160051c810160208510156102c95750805b601f840160051c820191505b818110156102e8575f81556001016102d5565b50505b505050565b81516001600160401b0381111561030957610309610105565b61031d81610317845461026c565b846102a4565b602080601f831160018114610350575f84156103395750858301515b5f19600386901b1c1916600185901b1785556103a7565b5f85815260208120601f198616915b8281101561037e5788860151825594840194600190910190840161035f565b508582101561039b57878501515f19600388901b60f8161c191681555b505060018460011b0185555b505050505050565b6102d5806103bc5f395ff3fe608060405234801561000f575f80fd5b506004361061003f575f3560e01c8063409e2205146100435780634a3bf3771461006c578063fc36e15b1461008d575b5f80fd5b610056610051366004610145565b6100a0565b604051610063919061015c565b60405180910390f35b61007f61007a3660046101bc565b505f90565b604051908152602001610063565b61009e61009b3660046101bc565b50565b005b5f81815481106100ae575f80fd5b905f5260205f20015f9150905080546100c690610267565b80601f01602080910402602001604051908101604052809291908181526020018280546100f290610267565b801561013d5780601f106101145761010080835404028352916020019161013d565b820191905f5260205f20905b81548152906001019060200180831161012057829003601f168201915b505050505081565b5f60208284031215610155575f80fd5b5035919050565b5f602080835283518060208501525f5b818110156101885785810183015185820160400152820161016c565b505f604082860101526040601f19601f8301168501019250505092915050565b634e487b7160e01b5f52604160045260245ffd5b5f602082840312156101cc575f80fd5b813567ffffffffffffffff808211156101e3575f80fd5b818401915084601f8301126101f6575f80fd5b813581811115610208576102086101a8565b604051601f8201601f19908116603f01168101908382118183101715610230576102306101a8565b81604052828152876020848701011115610248575f80fd5b826020860160208301375f928101602001929092525095945050505050565b600181811c9082168061027b57607f821691505b60208210810361029957634e487b7160e01b5f52602260045260245ffd5b5091905056fea26469706673582212205e21853238a0a7d1000c9048ea0e9d531c668e627b27ce3349e52498dc45a1b764736f6c63430008170033",
    "sourcePath": "/Users/mathieu/Code/mathieu-bour/mewo-exercises/src/06_SimpleVoting.sol",
    "compiler": {
        "name": "solc",
        "version": "0.8.23+commit.f704f362"
    },
    "functionHashes": {
        "options(uint256)": "409e2205",
        "totalVotesFor(string)": "4a3bf377",
        "vote(string)": "fc36e15b"
    },
    "gasEstimates": {
        "creation": {
            "codeDepositCost": "145000",
            "executionCost": "infinite",
            "totalCost": "infinite"
        },
        "external": {
            "options(uint256)": "infinite",
            "totalVotesFor(string)": "infinite",
            "vote(string)": "infinite"
        }
    }
}